{
  "_format": "hh-sol-artifact-1",
  "contractName": "MentalMathGame",
  "sourceName": "contracts/MentalMathGame.sol",
  "abi": [
    {
      "inputs": [
        {
          "internalType": "uint256",
          "name": "_initialRewardAmount",
          "type": "uint256"
        }
      ],
      "stateMutability": "nonpayable",
      "type": "constructor"
    },
    {
      "anonymous": false,
      "inputs": [
        {
          "indexed": true,
          "internalType": "address",
          "name": "player",
          "type": "address"
        },
        {
          "indexed": false,
          "internalType": "uint256",
          "name": "reward",
          "type": "uint256"
        },
        {
          "indexed": false,
          "internalType": "uint256",
          "name": "newScore",
          "type": "uint256"
        }
      ],
      "name": "AnswerCorrect",
      "type": "event"
    },
    {
      "anonymous": false,
      "inputs": [
        {
          "indexed": true,
          "internalType": "address",
          "name": "player",
          "type": "address"
        }
      ],
      "name": "AnswerIncorrect",
      "type": "event"
    },
    {
      "anonymous": false,
      "inputs": [
        {
          "indexed": true,
          "internalType": "address",
          "name": "funder",
          "type": "address"
        },
        {
          "indexed": false,
          "internalType": "uint256",
          "name": "amount",
          "type": "uint256"
        }
      ],
      "name": "ContractFunded",
      "type": "event"
    },
    {
      "anonymous": false,
      "inputs": [
        {
          "indexed": true,
          "internalType": "address",
          "name": "to",
          "type": "address"
        },
        {
          "indexed": false,
          "internalType": "uint256",
          "name": "amount",
          "type": "uint256"
        }
      ],
      "name": "FundsWithdrawn",
      "type": "event"
    },
    {
      "anonymous": false,
      "inputs": [
        {
          "indexed": false,
          "internalType": "uint256",
          "name": "newIndex",
          "type": "uint256"
        }
      ],
      "name": "NextQuestion",
      "type": "event"
    },
    {
      "anonymous": false,
      "inputs": [
        {
          "indexed": false,
          "internalType": "string",
          "name": "problem",
          "type": "string"
        },
        {
          "indexed": false,
          "internalType": "uint256",
          "name": "solution",
          "type": "uint256"
        }
      ],
      "name": "QuestionAdded",
      "type": "event"
    },
    {
      "anonymous": false,
      "inputs": [
        {
          "indexed": false,
          "internalType": "string",
          "name": "problem",
          "type": "string"
        },
        {
          "indexed": false,
          "internalType": "uint256",
          "name": "solution",
          "type": "uint256"
        }
      ],
      "name": "QuestionSet",
      "type": "event"
    },
    {
      "stateMutability": "payable",
      "type": "fallback"
    },
    {
      "inputs": [
        {
          "internalType": "string",
          "name": "_problem",
          "type": "string"
        },
        {
          "internalType": "uint256",
          "name": "_solution",
          "type": "uint256"
        }
      ],
      "name": "addQuestion",
      "outputs": [],
      "stateMutability": "nonpayable",
      "type": "function"
    },
    {
      "inputs": [],
      "name": "currentQuestionIndex",
      "outputs": [
        {
          "internalType": "uint256",
          "name": "",
          "type": "uint256"
        }
      ],
      "stateMutability": "view",
      "type": "function"
    },
    {
      "inputs": [],
      "name": "fundContract",
      "outputs": [],
      "stateMutability": "payable",
      "type": "function"
    },
    {
      "inputs": [],
      "name": "getContractBalance",
      "outputs": [
        {
          "internalType": "uint256",
          "name": "",
          "type": "uint256"
        }
      ],
      "stateMutability": "view",
      "type": "function"
    },
    {
      "inputs": [],
      "name": "getQuestion",
      "outputs": [
        {
          "internalType": "string",
          "name": "",
          "type": "string"
        },
        {
          "internalType": "bool",
          "name": "",
          "type": "bool"
        }
      ],
      "stateMutability": "view",
      "type": "function"
    },
    {
      "inputs": [],
      "name": "getRewardAmount",
      "outputs": [
        {
          "internalType": "uint256",
          "name": "",
          "type": "uint256"
        }
      ],
      "stateMutability": "view",
      "type": "function"
    },
    {
      "inputs": [],
      "name": "nextQuestion",
      "outputs": [],
      "stateMutability": "nonpayable",
      "type": "function"
    },
    {
      "inputs": [],
      "name": "owner",
      "outputs": [
        {
          "internalType": "address payable",
          "name": "",
          "type": "address"
        }
      ],
      "stateMutability": "view",
      "type": "function"
    },
    {
      "inputs": [
        {
          "internalType": "address",
          "name": "",
          "type": "address"
        }
      ],
      "name": "playerScores",
      "outputs": [
        {
          "internalType": "uint256",
          "name": "",
          "type": "uint256"
        }
      ],
      "stateMutability": "view",
      "type": "function"
    },
    {
      "inputs": [
        {
          "internalType": "uint256",
          "name": "",
          "type": "uint256"
        }
      ],
      "name": "questions",
      "outputs": [
        {
          "internalType": "string",
          "name": "problem",
          "type": "string"
        },
        {
          "internalType": "uint256",
          "name": "solution",
          "type": "uint256"
        },
        {
          "internalType": "bool",
          "name": "active",
          "type": "bool"
        }
      ],
      "stateMutability": "view",
      "type": "function"
    },
    {
      "inputs": [],
      "name": "rewardAmount",
      "outputs": [
        {
          "internalType": "uint256",
          "name": "",
          "type": "uint256"
        }
      ],
      "stateMutability": "view",
      "type": "function"
    },
    {
      "inputs": [],
      "name": "setFirstQuestionActive",
      "outputs": [],
      "stateMutability": "nonpayable",
      "type": "function"
    },
    {
      "inputs": [
        {
          "internalType": "uint256",
          "name": "_answer",
          "type": "uint256"
        }
      ],
      "name": "submitAnswer",
      "outputs": [],
      "stateMutability": "payable",
      "type": "function"
    },
    {
      "inputs": [],
      "name": "withdrawFunds",
      "outputs": [],
      "stateMutability": "nonpayable",
      "type": "function"
    },
    {
      "stateMutability": "payable",
      "type": "receive"
    }
  ],
  "bytecode": "0x608060405234801561001057600080fd5b50604051612921380380612921833981810160405281019061003291906102e9565b336000806101000a81548173ffffffffffffffffffffffffffffffffffffffff021916908373ffffffffffffffffffffffffffffffffffffffff160217905550806001819055506100be6040518060400160405280601b81526020017f4d656e74616c4d61746847616d65206465706c6f7965642062793a00000000008152503361010960201b60201c565b6101036040518060400160405280601d81526020017f496e697469616c2072657761726420616d6f756e742073657420746f3a000000815250826101ab60201b60201c565b50610485565b6101a7828260405160240161011f9291906103e7565b6040516020818303038152906040527f319af333000000000000000000000000000000000000000000000000000000007bffffffffffffffffffffffffffffffffffffffffffffffffffffffff19166020820180517bffffffffffffffffffffffffffffffffffffffffffffffffffffffff838183161783525050505061024d60201b60201c565b5050565b61024982826040516024016101c1929190610426565b6040516020818303038152906040527fb60e72cc000000000000000000000000000000000000000000000000000000007bffffffffffffffffffffffffffffffffffffffffffffffffffffffff19166020820180517bffffffffffffffffffffffffffffffffffffffffffffffffffffffff838183161783525050505061024d60201b60201c565b5050565b61026e8161026961027160201b6113341761029260201b60201c565b60201c565b50565b60006a636f6e736f6c652e6c6f679050600080835160208501845afa505050565b6102a460201b61155d17819050919050565b6102ac610456565b565b600080fd5b6000819050919050565b6102c6816102b3565b81146102d157600080fd5b50565b6000815190506102e3816102bd565b92915050565b6000602082840312156102ff576102fe6102ae565b5b600061030d848285016102d4565b91505092915050565b600081519050919050565b600082825260208201905092915050565b60005b83811015610350578082015181840152602081019050610335565b60008484015250505050565b6000601f19601f8301169050919050565b600061037882610316565b6103828185610321565b9350610392818560208601610332565b61039b8161035c565b840191505092915050565b600073ffffffffffffffffffffffffffffffffffffffff82169050919050565b60006103d1826103a6565b9050919050565b6103e1816103c6565b82525050565b60006040820190508181036000830152610401818561036d565b905061041060208301846103d8565b9392505050565b610420816102b3565b82525050565b60006040820190508181036000830152610440818561036d565b905061044f6020830184610417565b9392505050565b7f4e487b7100000000000000000000000000000000000000000000000000000000600052605160045260246000fd5b61248d806104946000396000f3fe6080604052600436106100e15760003560e01c806378b7d2781161007f5780638da5cb5b116100595780638da5cb5b1461030d578063bd097e2114610338578063eff38f9214610342578063f7b2a7be1461036e57610136565b806378b7d278146102af5780637c3572c2146102c6578063868b1a61146102e257610136565b8063319a8ea2116100bb578063319a8ea2146101f157806331b1b9781461020857806362550ae1146102475780636f9fb98a1461028457610136565b806309a69f5714610186578063129cd33e146101b157806324600fc3146101da57610136565b36610136573373ffffffffffffffffffffffffffffffffffffffff167f0939f6f4877faf071412e527bc4c6d0bd65ad077e52b57334f7765265647a7f13460405161012c9190611580565b60405180910390a2005b3373ffffffffffffffffffffffffffffffffffffffff167f0939f6f4877faf071412e527bc4c6d0bd65ad077e52b57334f7765265647a7f13460405161017c9190611580565b60405180910390a2005b34801561019257600080fd5b5061019b610399565b6040516101a89190611580565b60405180910390f35b3480156101bd57600080fd5b506101d860048036038101906101d39190611721565b6103a3565b005b3480156101e657600080fd5b506101ef6104f9565b005b3480156101fd57600080fd5b50610206610784565b005b34801561021457600080fd5b5061022f600480360381019061022a919061177d565b610a0c565b60405161023e93929190611844565b60405180910390f35b34801561025357600080fd5b5061026e600480360381019061026991906118e0565b610adb565b60405161027b9190611580565b60405180910390f35b34801561029057600080fd5b50610299610af3565b6040516102a69190611580565b60405180910390f35b3480156102bb57600080fd5b506102c4610afb565b005b6102e060048036038101906102db919061177d565b610c9e565b005b3480156102ee57600080fd5b506102f76110de565b6040516103049190611580565b60405180910390f35b34801561031957600080fd5b506103226110e4565b60405161032f919061192e565b60405180910390f35b610340611108565b005b34801561034e57600080fd5b50610357611211565b604051610365929190611949565b60405180910390f35b34801561037a57600080fd5b5061038361132e565b6040516103909190611580565b60405180910390f35b6000600154905090565b60008054906101000a900473ffffffffffffffffffffffffffffffffffffffff1673ffffffffffffffffffffffffffffffffffffffff163373ffffffffffffffffffffffffffffffffffffffff1614610431576040517f08c379a0000000000000000000000000000000000000000000000000000000008152600401610428906119eb565b60405180910390fd5b60026040518060600160405280848152602001838152602001600015158152509080600181540180825580915050600190039060005260206000209060030201600090919091909150600082015181600001908161048f9190611c17565b506020820151816001015560408201518160020160006101000a81548160ff02191690831515021790555050507f797b58d1b0ffe7f5bf4a651fb42739a6e76dc9c9ae072a73eea139274509b3f182826040516104ed929190611ce9565b60405180910390a15050565b60008054906101000a900473ffffffffffffffffffffffffffffffffffffffff1673ffffffffffffffffffffffffffffffffffffffff163373ffffffffffffffffffffffffffffffffffffffff1614610587576040517f08c379a000000000000000000000000000000000000000000000000000000000815260040161057e906119eb565b60405180910390fd5b6000479050600081116105cf576040517f08c379a00000000000000000000000000000000000000000000000000000000081526004016105c690611d8b565b60405180910390fd5b60008060009054906101000a900473ffffffffffffffffffffffffffffffffffffffff1673ffffffffffffffffffffffffffffffffffffffff168260405161061690611ddc565b60006040518083038185875af1925050503d8060008114610653576040519150601f19603f3d011682016040523d82523d6000602084013e610658565b606091505b505090508061069c576040517f08c379a000000000000000000000000000000000000000000000000000000000815260040161069390611e3d565b60405180910390fd5b60008054906101000a900473ffffffffffffffffffffffffffffffffffffffff1673ffffffffffffffffffffffffffffffffffffffff167feaff4b37086828766ad3268786972c0cd24259d4c87a80f9d3963a3c3d999b0d836040516107029190611580565b60405180910390a26107806040518060400160405280600e81526020017f4f776e6572207769746864726577000000000000000000000000000000000000815250836040518060400160405280601781526020017f7765692e2052656d61696e696e672062616c616e63653a00000000000000000081525047611355565b5050565b60008054906101000a900473ffffffffffffffffffffffffffffffffffffffff1673ffffffffffffffffffffffffffffffffffffffff163373ffffffffffffffffffffffffffffffffffffffff1614610812576040517f08c379a0000000000000000000000000000000000000000000000000000000008152600401610809906119eb565b60405180910390fd5b60006002805490501161085a576040517f08c379a000000000000000000000000000000000000000000000000000000000815260040161085190611ea9565b60405180910390fd5b60035460028054905011156108aa57600060026003548154811061088157610880611ec9565b5b906000526020600020906003020160020160006101000a81548160ff0219169083151502179055505b600360008154809291906108bd90611f27565b91905055506002805490506003541061090b576040517f08c379a000000000000000000000000000000000000000000000000000000000815260040161090290611fbb565b60405180910390fd5b600160026003548154811061092357610922611ec9565b5b906000526020600020906003020160020160006101000a81548160ff0219169083151502179055507fcb0f4913540dedd762d0038f7b1d46d8647e60b9e61002b383a656ff4f7e82a860035460405161097c9190611580565b60405180910390a17fd8ec5c921ac97995ca32c8cd072fb845f53e064fe27283a2b9046d158228a35a6002600354815481106109bb576109ba611ec9565b5b90600052602060002090600302016000016002600354815481106109e2576109e1611ec9565b5b906000526020600020906003020160010154604051610a0292919061205f565b60405180910390a1565b60028181548110610a1c57600080fd5b9060005260206000209060030201600091509050806000018054610a3f90611a3a565b80601f0160208091040260200160405190810160405280929190818152602001828054610a6b90611a3a565b8015610ab85780601f10610a8d57610100808354040283529160200191610ab8565b820191906000526020600020905b815481529060010190602001808311610a9b57829003601f168201915b5050505050908060010154908060020160009054906101000a900460ff16905083565b60046020528060005260406000206000915090505481565b600047905090565b60008054906101000a900473ffffffffffffffffffffffffffffffffffffffff1673ffffffffffffffffffffffffffffffffffffffff163373ffffffffffffffffffffffffffffffffffffffff1614610b89576040517f08c379a0000000000000000000000000000000000000000000000000000000008152600401610b80906119eb565b60405180910390fd5b600060028054905011610bd1576040517f08c379a0000000000000000000000000000000000000000000000000000000008152600401610bc890611ea9565b60405180910390fd5b600060038190555060016002600081548110610bf057610bef611ec9565b5b906000526020600020906003020160020160006101000a81548160ff0219169083151502179055507fd8ec5c921ac97995ca32c8cd072fb845f53e064fe27283a2b9046d158228a35a6002600081548110610c4e57610c4d611ec9565b5b90600052602060002090600302016000016002600081548110610c7457610c73611ec9565b5b906000526020600020906003020160010154604051610c9492919061205f565b60405180910390a1565b600060028054905011610ce6576040517f08c379a0000000000000000000000000000000000000000000000000000000008152600401610cdd906120db565b60405180910390fd5b600260035481548110610cfc57610cfb611ec9565b5b906000526020600020906003020160020160009054906101000a900460ff16610d5a576040517f08c379a0000000000000000000000000000000000000000000000000000000008152600401610d5190612147565b60405180910390fd5b600154471015610d9f576040517f08c379a0000000000000000000000000000000000000000000000000000000008152600401610d96906121d9565b60405180910390fd5b600260035481548110610db557610db4611ec9565b5b906000526020600020906003020160010154810361102257600154600460003373ffffffffffffffffffffffffffffffffffffffff1673ffffffffffffffffffffffffffffffffffffffff1681526020019081526020016000206000828254610e1e91906121f9565b9250508190555060003373ffffffffffffffffffffffffffffffffffffffff16600154604051610e4d90611ddc565b60006040518083038185875af1925050503d8060008114610e8a576040519150601f19603f3d011682016040523d82523d6000602084013e610e8f565b606091505b5050905080610ed3576040517f08c379a0000000000000000000000000000000000000000000000000000000008152600401610eca90612279565b60405180910390fd5b3373ffffffffffffffffffffffffffffffffffffffff167fdfde8e3150a5e48ee47e52ae57f889fc26736e87722e7f86405fe1975750178c600154600460003373ffffffffffffffffffffffffffffffffffffffff1673ffffffffffffffffffffffffffffffffffffffff16815260200190815260200160002054604051610f5c929190612299565b60405180910390a2610fdc6040518060400160405280600681526020017f506c617965720000000000000000000000000000000000000000000000000000815250336040518060400160405280601d81526020017f616e73776572656420636f72726563746c792e2052657761726465643a0000008152506001546113f7565b6000600260035481548110610ff457610ff3611ec9565b5b906000526020600020906003020160020160006101000a81548160ff021916908315150217905550506110db565b3373ffffffffffffffffffffffffffffffffffffffff167f8d02fbc1f9ad81badbd569be92481aae075211bfc1590d88cd34cc6310a1459e60405160405180910390a26110da6040518060400160405280600681526020017f506c617965720000000000000000000000000000000000000000000000000000815250336040518060400160405280601581526020017f616e73776572656420696e636f72726563746c792e0000000000000000000000815250611499565b5b50565b60035481565b60008054906101000a900473ffffffffffffffffffffffffffffffffffffffff1681565b6000341161114b576040517f08c379a00000000000000000000000000000000000000000000000000000000081526004016111429061230e565b60405180910390fd5b3373ffffffffffffffffffffffffffffffffffffffff167f0939f6f4877faf071412e527bc4c6d0bd65ad077e52b57334f7765265647a7f1346040516111919190611580565b60405180910390a261120f6040518060400160405280601581526020017f436f6e74726163742066756e64656420776974683a0000000000000000000000815250346040518060400160405280601181526020017f7765692e204e65772062616c616e63653a00000000000000000000000000000081525047611355565b565b60606000806002805490500361123d57600060405180602001604052806000815250909150915061132a565b60026003548154811061125357611252611ec9565b5b906000526020600020906003020160000160026003548154811061127a57611279611ec9565b5b906000526020600020906003020160020160009054906101000a900460ff168180546112a590611a3a565b80601f01602080910402602001604051908101604052809291908181526020018280546112d190611a3a565b801561131e5780601f106112f35761010080835404028352916020019161131e565b820191906000526020600020905b81548152906001019060200180831161130157829003601f168201915b50505050509150915091505b9091565b60015481565b60006a636f6e736f6c652e6c6f679050600080835160208501845afa505050565b6113f18484848460405160240161136f949392919061232e565b6040516020818303038152906040527fc67ea9d1000000000000000000000000000000000000000000000000000000007bffffffffffffffffffffffffffffffffffffffffffffffffffffffff19166020820180517bffffffffffffffffffffffffffffffffffffffffffffffffffffffff8381831617835250505050611538565b50505050565b611493848484846040516024016114119493929190612390565b6040516020818303038152906040527f91d1112e000000000000000000000000000000000000000000000000000000007bffffffffffffffffffffffffffffffffffffffffffffffffffffffff19166020820180517bffffffffffffffffffffffffffffffffffffffffffffffffffffffff8381831617835250505050611538565b50505050565b6115338383836040516024016114b1939291906123e3565b6040516020818303038152906040527fe0e9ad4f000000000000000000000000000000000000000000000000000000007bffffffffffffffffffffffffffffffffffffffffffffffffffffffff19166020820180517bffffffffffffffffffffffffffffffffffffffffffffffffffffffff8381831617835250505050611538565b505050565b61154f81611547611334611552565b63ffffffff16565b50565b61155d819050919050565b611565612428565b565b6000819050919050565b61157a81611567565b82525050565b60006020820190506115956000830184611571565b92915050565b6000604051905090565b600080fd5b600080fd5b600080fd5b600080fd5b6000601f19601f8301169050919050565b7f4e487b7100000000000000000000000000000000000000000000000000000000600052604160045260246000fd5b611602826115b9565b810181811067ffffffffffffffff82111715611621576116206115ca565b5b80604052505050565b600061163461159b565b905061164082826115f9565b919050565b600067ffffffffffffffff8211156116605761165f6115ca565b5b611669826115b9565b9050602081019050919050565b82818337600083830152505050565b600061169861169384611645565b61162a565b9050828152602081018484840111156116b4576116b36115b4565b5b6116bf848285611676565b509392505050565b600082601f8301126116dc576116db6115af565b5b81356116ec848260208601611685565b91505092915050565b6116fe81611567565b811461170957600080fd5b50565b60008135905061171b816116f5565b92915050565b60008060408385031215611738576117376115a5565b5b600083013567ffffffffffffffff811115611756576117556115aa565b5b611762858286016116c7565b92505060206117738582860161170c565b9150509250929050565b600060208284031215611793576117926115a5565b5b60006117a18482850161170c565b91505092915050565b600081519050919050565b600082825260208201905092915050565b60005b838110156117e45780820151818401526020810190506117c9565b60008484015250505050565b60006117fb826117aa565b61180581856117b5565b93506118158185602086016117c6565b61181e816115b9565b840191505092915050565b60008115159050919050565b61183e81611829565b82525050565b6000606082019050818103600083015261185e81866117f0565b905061186d6020830185611571565b61187a6040830184611835565b949350505050565b600073ffffffffffffffffffffffffffffffffffffffff82169050919050565b60006118ad82611882565b9050919050565b6118bd816118a2565b81146118c857600080fd5b50565b6000813590506118da816118b4565b92915050565b6000602082840312156118f6576118f56115a5565b5b6000611904848285016118cb565b91505092915050565b600061191882611882565b9050919050565b6119288161190d565b82525050565b6000602082019050611943600083018461191f565b92915050565b6000604082019050818103600083015261196381856117f0565b90506119726020830184611835565b9392505050565b7f4f6e6c79206f776e65722063616e2063616c6c20746869732066756e6374696f60008201527f6e2e000000000000000000000000000000000000000000000000000000000000602082015250565b60006119d56022836117b5565b91506119e082611979565b604082019050919050565b60006020820190508181036000830152611a04816119c8565b9050919050565b7f4e487b7100000000000000000000000000000000000000000000000000000000600052602260045260246000fd5b60006002820490506001821680611a5257607f821691505b602082108103611a6557611a64611a0b565b5b50919050565b60008190508160005260206000209050919050565b60006020601f8301049050919050565b600082821b905092915050565b600060088302611acd7fffffffffffffffffffffffffffffffffffffffffffffffffffffffffffffffff82611a90565b611ad78683611a90565b95508019841693508086168417925050509392505050565b6000819050919050565b6000611b14611b0f611b0a84611567565b611aef565b611567565b9050919050565b6000819050919050565b611b2e83611af9565b611b42611b3a82611b1b565b848454611a9d565b825550505050565b600090565b611b57611b4a565b611b62818484611b25565b505050565b5b81811015611b8657611b7b600082611b4f565b600181019050611b68565b5050565b601f821115611bcb57611b9c81611a6b565b611ba584611a80565b81016020851015611bb4578190505b611bc8611bc085611a80565b830182611b67565b50505b505050565b600082821c905092915050565b6000611bee60001984600802611bd0565b1980831691505092915050565b6000611c078383611bdd565b9150826002028217905092915050565b611c20826117aa565b67ffffffffffffffff811115611c3957611c386115ca565b5b611c438254611a3a565b611c4e828285611b8a565b600060209050601f831160018114611c815760008415611c6f578287015190505b611c798582611bfb565b865550611ce1565b601f198416611c8f86611a6b565b60005b82811015611cb757848901518255600182019150602085019450602081019050611c92565b86831015611cd45784890151611cd0601f891682611bdd565b8355505b6001600288020188555050505b505050505050565b60006040820190508181036000830152611d0381856117f0565b9050611d126020830184611571565b9392505050565b7f436f6e747261637420686173206e6f2066756e647320746f207769746864726160008201527f772e000000000000000000000000000000000000000000000000000000000000602082015250565b6000611d756022836117b5565b9150611d8082611d19565b604082019050919050565b60006020820190508181036000830152611da481611d68565b9050919050565b600081905092915050565b50565b6000611dc6600083611dab565b9150611dd182611db6565b600082019050919050565b6000611de782611db9565b9150819050919050565b7f4661696c656420746f2077697468647261772066756e64730000000000000000600082015250565b6000611e276018836117b5565b9150611e3282611df1565b602082019050919050565b60006020820190508181036000830152611e5681611e1a565b9050919050565b7f4e6f207175657374696f6e7320617661696c61626c6500000000000000000000600082015250565b6000611e936016836117b5565b9150611e9e82611e5d565b602082019050919050565b60006020820190508181036000830152611ec281611e86565b9050919050565b7f4e487b7100000000000000000000000000000000000000000000000000000000600052603260045260246000fd5b7f4e487b7100000000000000000000000000000000000000000000000000000000600052601160045260246000fd5b6000611f3282611567565b91507fffffffffffffffffffffffffffffffffffffffffffffffffffffffffffffffff8203611f6457611f63611ef8565b5b600182019050919050565b7f4e6f206d6f7265207175657374696f6e73000000000000000000000000000000600082015250565b6000611fa56011836117b5565b9150611fb082611f6f565b602082019050919050565b60006020820190508181036000830152611fd481611f98565b9050919050565b60008154611fe881611a3a565b611ff281866117b5565b9450600182166000811461200d576001811461202357612056565b60ff198316865281151560200286019350612056565b61202c85611a6b565b60005b8381101561204e5781548189015260018201915060208101905061202f565b808801955050505b50505092915050565b600060408201905081810360008301526120798185611fdb565b90506120886020830184611571565b9392505050565b7f4e6f207175657374696f6e7320617661696c61626c652e000000000000000000600082015250565b60006120c56017836117b5565b91506120d08261208f565b602082019050919050565b600060208201905081810360008301526120f4816120b8565b9050919050565b7f4e6f20616374697665207175657374696f6e20617661696c61626c652e000000600082015250565b6000612131601d836117b5565b915061213c826120fb565b602082019050919050565b6000602082019050818103600083015261216081612124565b9050919050565b7f436f6e747261637420646f6573206e6f74206861766520656e6f75676820667560008201527f6e647320666f72207265776172642e0000000000000000000000000000000000602082015250565b60006121c3602f836117b5565b91506121ce82612167565b604082019050919050565b600060208201905081810360008301526121f2816121b6565b9050919050565b600061220482611567565b915061220f83611567565b925082820190508082111561222757612226611ef8565b5b92915050565b7f4661696c656420746f2073656e64207265776172642045544800000000000000600082015250565b60006122636019836117b5565b915061226e8261222d565b602082019050919050565b6000602082019050818103600083015261229281612256565b9050919050565b60006040820190506122ae6000830185611571565b6122bb6020830184611571565b9392505050565b7f4d7573742073656e642045544820746f2066756e640000000000000000000000600082015250565b60006122f86015836117b5565b9150612303826122c2565b602082019050919050565b60006020820190508181036000830152612327816122eb565b9050919050565b6000608082019050818103600083015261234881876117f0565b90506123576020830186611571565b818103604083015261236981856117f0565b90506123786060830184611571565b95945050505050565b61238a816118a2565b82525050565b600060808201905081810360008301526123aa81876117f0565b90506123b96020830186612381565b81810360408301526123cb81856117f0565b90506123da6060830184611571565b95945050505050565b600060608201905081810360008301526123fd81866117f0565b905061240c6020830185612381565b818103604083015261241e81846117f0565b9050949350505050565b7f4e487b7100000000000000000000000000000000000000000000000000000000600052605160045260246000fdfea2646970667358221220d329e138d79266f214a445a301f3a1f576fb496f47a2ab22ed2035e70e84484264736f6c634300081c0033",
  "linkReferences": {},
  "deployedLinkReferences": {}
}